:020000040800F2
:10000000C8050020A1010008131400086D130008A2
:1000100011140008AD0200089D180008000000003F
:10002000000000000000000000000000171400089D
:1000300061030008000000001514000819140008EE
:10004000BB010008BB010008BB010008BB010008A0
:10005000BB010008BB010008BB010008BB01000890
:10006000BB010008BB010008BB010008BB01000880
:10007000B1020008BB010008BB010008BB01000879
:10008000BB010008BB010008BB010008BB01000860
:10009000BB010008BB010008BB010008BB01000850
:1000A000BB010008BB010008BB010008BB01000840
:1000B000BB010008BD140008BB010008BB0100081B
:1000C000BB010008BB010008BB010008BB01000820
:1000D000BB010008BB010008BB010008BB01000810
:1000E000BB010008BB010008BB010008BB01000800
:1000F000BB010008BB010008BB010008BB010008F0
:10010000BB010008BB010008BB010008BB010008DF
:10011000BB010008BB010008BB010008BB010008CF
:10012000BB010008BB010008BB010008BB010008BF
:10013000BB0100080000000000000000BB01000837
:10014000BB010008BB010008BB010008BB0100089F
:10015000BB010008BB010008BB010008BB0100088F
:10016000BB010008BB010008BB010008BB0100087F
:10017000BB010008BB0100080000000000000000F7
:10018000BB010008BB010008DFF810D000F07CF8CC
:1001900000480047DD180008AFF30080C8050020C4
:1001A0000648804706480047FEE7FEE7FEE7FEE711
:1001B000FEE7FEE7FEE7FEE7FEE7FEE7AD14000818
:1001C000890100082DE9F05F0546002092469B4614
:1001D00088460646814640241BE02846414647465D
:1001E000224600F041F853465A46C01A914110D3B6
:1001F00011461846224600F028F82D1A67EB010830
:100200004F4622460120002100F01FF817EB00099D
:100210004E41201EA4F10104DFDC484631462A4647
:100220004346BDE8F09FD2B201E000F8012B491E21
:10023000FBD270470022F6E710B513460A46044683
:100240001946FFF7F0FF204610BD202A04DB203AB4
:1002500000FA02F1002070479140C2F1200320FA19
:1002600003F3194390407047202A04DB203A21FA17
:1002700002F00021704721FA02F3D040C2F12002BF
:100280009140084319467047064C074D06E0E06868
:1002900040F0010394E8070098471034AC42F6D3CD
:1002A000FFF776FF90190008B0190008FEE700007C
:1002B000014800F059B8000020010020016818230F
:1002C000CAB2103AB2FBF3F2054B6FF30901032AED
:1002D0009B5CC36500D9091D816508467047000015
:1002E0007019000810B5014600208B698A6A4FF02A
:1002F000C07453B1B3F5005F15D072B1012A0CD0B0
:10030000022A0AD0032A09D104E01AB1012A06D030
:10031000022A03D1C96AC90100D5012010BDC96AEA
:10032000A142FAD010BD002AF7D0012AF2D0022A49
:10033000F3D0032AF3D010BD30B50468256825F446
:1003400080252560046863608368402B036803D0C0
:1003500099600068C26030BD9A600068C16030BDBD
:10036000704772B6FEE700002DE9F84304464FF0EF
:100370000009CDF8009063484FF41651A56D006850
:10038000B0FBF1F72E6894F85C10082000FA01F138
:1003900031420FD021680A6852070BD50A6822F053
:1003A00004020A6094F85C108840A860606D40F018
:1003B0000100606594F85C104FF0010808FA01F044
:1003C000304208D021684969090604D5A860606DEB
:1003D00040F00200606594F85C10042088403042D0
:1003E00008D021680968890704D5A860606D40F0CD
:1003F0000400606594F85C1010208840304218D0EA
:1004000021680968090714D5A860206801684903B4
:1004100004D50068000308D5A16C07E00168C90590
:1004200003D4016821F008010160216C09B1204664
:10043000884794F85C1020208840304231D02168F1
:100440000968C9062DD5A86094F8350005282068EC
:10045000016806D0490347D5006800031DD4616CCC
:100460001CE021F0160101602068416921F0800143
:100470004161206C08B9A06C20B12068016821F0AE
:100480000801016094F85C103F208840A86084F85F
:10049000358084F83490216D1FE0E16B09B120466E
:1004A0008847606D00282BD0606DC00714D00520F0
:1004B00084F835002068016821F00101016000988E
:1004C000401C0090B84203D820680068C007F6D1ED
:1004D00084F8358084F83490E16C002910D001B0A4
:1004E0002046BDE8F04308470168C905D5D4016836
:1004F00021F01001016084F8358084F83490CCE755
:10050000BDE8F8830C0000202DE9F041044600F01E
:10051000ADF906465CB1022084F83500002584F868
:1005200034502068016821F0010101600DE00120D4
:10053000BDE8F08100F09AF9801B052805D920203C
:100540006065032084F83500F2E720680068C00782
:10055000F0D12268116820480140D4E90103184312
:10056000D4E903363343184363691843A369184336
:10057000E3691843236A18430843616A042903D1D5
:10058000D4E90B1319430843106020684069666A78
:1005900020F0070130460E43012704280CD1A06A41
:1005A0000643E06A40B12046FFF79CFE20B14020A0
:1005B000606584F83570BAE7206846612046FFF729
:1005C0007DFE94F85C203F2191408160656584F850
:1005D00035700020ACE700003F8010F02DE9F041BD
:1005E0000446866D90F83400002501280DD00120C6
:1005F00084F8340094F835700020012F07D084F877
:10060000340002252846BDE8F0810220FBE70227DE
:1006100084F8357060652046FFF78EFE94F85C1014
:100620003F208840B0602068016841F016010160F9
:10063000206C20B12068016841F008010160206849
:10064000016841F001010160DCE7000070B504467B
:1006500000F00CF90546601C02D004480078044400
:1006600000F004F9401BA042FAD370BD0000002046
:100670002DE9F84FDFF8BCA10022012503264FF039
:100680000F090AF1040BAAF1040E00BF0B6805FA6A
:1006900002F42340A34270D10F7907F00307012F22
:1006A00001D0022F16D187684FEA420806FA08FCEB
:1006B00027EA0C07D1F80CC00CFA08FC4CEA070C2E
:1006C000C0F808C04768A7430C79C4F300149440ED
:1006D0003C4344600C79E443A4070AD0C4684FEA61
:1006E000420C06FA0CF7BC438F6807FA0CF7274355
:1006F000C7600C7904F00304022C12D1D40800EB7B
:10070000840CDCF820405707FF0E09FA07F824EAAA
:100710000804D1F8108008FA07F848EA0408CCF871
:10072000208004684FEA420C06FA0CF7BC430F79AC
:1007300007F0030707FA0CF7274307604C6814F427
:10074000403F70D03C4C276847F4804727602468BE
:1007500022F0030704F480440094384C07EB040CA7
:10076000DCF8084897074FEA177809FA08F7BC43FE
:10077000334FB84202D1002724E054E0314FB84251
:1007800001D101271EE0304FB84201D1022719E004
:100790002E4FB84201D1032714E02D4FB84201D1AA
:1007A00004270FE02B4FB84201D105270AE02A4F5A
:1007B000B84201D1062705E0284FB84201D10727EA
:1007C00000E0082707FA08F72743CCF80878DAF89A
:1007D00000405746D1F804C09C435FEACC2C00D5BA
:1007E0001C433C60DBF800405F46D1F804C09C43EA
:1007F0005FEA8C2C00D51C433C60DEF80040774655
:10080000D1F804C09C435FEA8C3C00D51C433C609B
:10081000084F083F3C68D1F804C09C435FEACC3CD9
:1008200000D51C433C60521C102AFFF42FAFBDE8DA
:10083000F88F0000083C014044380240003001407D
:10084000000002400004024000080240000C024088
:10085000001002400014024000180240001C024038
:100860000AB1816170470904FBE700000148806814
:10087000704700000000002002488168027811449F
:1008800081607047000000200B4810B5016841F4FA
:1008900000710160016841F480610160016841F408
:1008A00080710160032000F09BF80F2000F006F833
:1008B00000F050F8002010BD003C024030B5054665
:1008C0001F4887B00024016841F002010160006800
:1008D00006A900F00200009001A800F02DF904988C
:1008E000A8B100F049F940001649174AB0FBF1F1F0
:1008F0001648491E026040F2E732C0E90324C0E90D
:100900000114846100F040FB040003D015E000F006
:1009100033F9E9E70D4800F065FB04000DD11D2017
:1009200000F030F8102D07D2002229461D2000F0DB
:1009300037F80748056000E0012407B0204630BDC5
:100940004038024040420F00000400408001002077
:10095000040000200A4808B5016841F480410160A4
:10096000006800F4804000900548001F016841F0D5
:1009700080510160006800F08050009008BD0000C8
:1009800044380240002809DB00F01F020121914099
:100990004009800000F1E020C0F80011704700001D
:1009A000F0B40E4B1B680C46C3F30223C3F10705DA
:1009B000042D00D90425191D072901D2002300E0C8
:1009C000DB1E012606FA05F1491E214099409E4092
:1009D000761E16403143F0BC00F061BF0CED00E024
:1009E000064900F0070208684FF6FF03184040EA86
:1009F0000220034A10430860704700000CED00E03D
:100A00000000FA052DE9F0470E46050065D0DFF835
:100A10001481D8F80000F7B200F00700B04207D206
:100A200088F80070D8F8000000F00700B04254D1F8
:100A300028683D4C810712D5400703D5206840F453
:100A4000E05020602878000703D5206840F460401B
:100A500020602068A96820F0F00008432060287812
:100A6000C0072DD0304968680839012812D0022803
:100A700013D0032811D00968890700292DDA2168CD
:100A800021F0030101432160FFF7F0FE814641F2AE
:100A9000883A0EE009688903EFE709688901ECE705
:100AA000FFF7E4FEA0EB0901514502D90320BDE8A0
:100AB000F0872068696800F00C00B0EB810FEFD17F
:100AC000D8F80010404601F00701B14207D907707D
:100AD000006800F00700B04201D00120E7E7287865
:100AE000400705D52068E96820F4E05008432060FD
:100AF0002878000706D52068296920F4604040EA7C
:100B0000C100206000F058F82168084AC1F30311C1
:100B1000515CC8400649086006480068FFF7CEFEF1
:100B20000020C4E7003C0240083802407819000861
:100B30000C000020040000200F2202600C4A136801
:100B400003F003034360136803F0F003836013684A
:100B500003F4E053C36012684FF4E05303EAD20297
:100B600002610448006800F0070008607047000058
:100B700008380240003C0240044805490068096802
:100B8000044AC1F38221515CC84070470C00002028
:100B900008380240881900080448054900680968B7
:100BA000044AC1F34231515CC84070470C00002038
:100BB0000838024088190008154810B5006810F080
:100BC0000C02144813D04110042A0FD0082A0ED169
:100BD0000F4C241F2268236802F03F025B0207D5F6
:100BE0002068C0F38810A0FB010106E0084610BD94
:100BF0002168C1F38811A1FB00010023FFF7E2FA8D
:100C00002168C1F30141491C4900B0FBF1F010BD5E
:100C1000083802400024F4002DE9F84F04006ED09B
:100C20002078DFF84C93C007A9F104054AD009F1F8
:100C300004000168C1F38101012908D00068C0F3F4
:100C4000810002280AD1D9F80000400206D52868A0
:100C5000800337D560680028E1D033E06068B0F5E4
:100C6000803F10D0B0F5A02F286810D020F480303D
:100C70002860286820F4802028606068A8B1FFF709
:100C8000F5FD06460DE0286840F48030F4E740F4B6
:100C900080202860F7E700BFFFF7E8FD801B64288D
:100CA00073D828688003F7D50CE0FFF7DFFD064610
:100CB00005E000BFFFF7DAFD801B6428F0D8286844
:100CC0008003F7D42078DFF8AC8280074FF0000A69
:100CD0003ED5A748001D016811F00C0F08D0006830
:100CE000C0F3810002280BD1D9F80000400207D4DC
:100CF0002868800716D5E068012800D112E033E1AA
:100D0000E068B8B10120C8F80000FFF7AFFD064663
:100D100005E000BFFFF7AAFD801B0228C0D82868A5
:100D20008007F7D52868216920F0F80040EAC10063
:100D300028600DE0C8F800A0FFF798FD064604E023
:100D4000FFF794FD801B02281FD828688007F7D47E
:100D50002078000722D5864F87486169703771B1C6
:100D600001210160FFF782FD064604E0FFF77EFDEA
:100D7000801B022809D838688007F7D50EE0C0F834
:100D800000A0FFF773FD064605E082E0FFF76EFD69
:100D9000801B02287DD838688007F7D42078400768
:100DA00068D5DFF8CCB100270BF13C0BDBF8000075
:100DB000C0000BD4DBF8001041F08051CBF80010DC
:100DC000DBF80000012700F0805000906B4E306887
:100DD000C00510D4306840F480703060FFF746FDE5
:100DE000009005E0FFF742FD0099401A022850D814
:100DF0003068C005F6D55E4EA0686C3601280FD06D
:100E00000528306810D020F001003060306820F0F4
:100E100004003060A068B8B1FFF728FD00900FE033
:100E2000306840F00100F4E740F004003060F7E77C
:100E3000FFF71CFD0099411A41F28830814266D8C3
:100E400030688007F4D50EE0FFF710FD009007E052
:100E5000FFF70CFD0099411A41F28830814256D8C3
:100E600030688007F4D42FB1DBF8001021F08051F6
:100E7000CBF80010A069C8B33D49091D0968C1F34A
:100E8000810102294AD00228504607D0C8F86000E4
:100E900000E03CE0FFF7EAFC04463BE04746C8F8C8
:100EA0006000FFF7E3FC064605E000BFFFF7DEFC4D
:100EB000801B02282BD828688001F7D4D4E90701C9
:100EC0000843A16A2E4A490802EB0141626A41EADD
:100ED0008211084394F82C1040EA0161C9F800100F
:100EE00001203866FFF7C2FC044606E03EE000BF82
:100EF000FFF7BCFC001B022809D828688001F7D541
:100F000034E000BFFFF7B2FC001B022802D9032027
:100F1000BDE8F88F28688001F4D427E00128F7D0D5
:100F2000D9F80000E26900F4800191421CD1226AE4
:100F300000F03F01914217D147F6C071626A01404B
:100F4000B1EB821F10D1A26A4FF0FF3300F44031A1
:100F500003EB5202B1EB024F06D194F82C1000F0D3
:100F60007060B0EB016F01D00120D1E70020CFE726
:100F70000438024000004742800E474200700040A3
:100F80000000FFFF7047704710B5040003D094F8CD
:100F90003D0010B107E0012010BD002084F83C00A6
:100FA000204600F01EF8022084F83D00211D206834
:100FB00000F08AFA012084F8460084F83E0084F8A4
:100FC0003F0084F8400084F8410084F8420084F82F
:100FD000430084F8440084F8450084F83D00002074
:100FE00010BD704790F83D10012901D001207047D5
:100FF000022180F83D100168CA6842F00102CA600F
:1010000000681149884214D0B0F1804F11D00F49C7
:1010100088420ED00E4988420BD00E49884208D033
:101020000D49884205D00D49884202D00C498842BA
:1010300004D1816801F00701062903D0016841F05D
:1010400001010160002070470000014000040040E1
:1010500000080040000C0040000401400040014036
:101060000018004070472DE9F04104460068C6684A
:1010700005694FF00007A90713D5B10711D5F91E6F
:10108000016101202077206880698007204602D016
:10109000FFF7E8FF04E000F07EF8204600F07CF85F
:1010A0002777680716D5700714D521686FF00400FC
:1010B0000861022020772068806910F4407F204674
:1010C00002D0FFF7CFFF04E000F065F8204600F003
:1010D00063F82777280715D5300713D521686FF0F7
:1010E00008000861042020772068C0698007204636
:1010F00002D0FFF7B7FF04E000F04DF8204600F003
:101100004BF82777E80616D5F00614D521686FF05E
:1011100010000861082020772068C06910F4407F23
:10112000204602D0FFF79EFF04E000F034F820468E
:1011300000F032F82777E80708D0F00706D02168DA
:101140006FF001000861204600F028F8280608D555
:10115000300606D521686FF0800008612046FFF751
:1011600011FF680608D5700606D521686FF04000AB
:101170000861204600F01CF8A8060AD5B00608D57C
:1011800021686FF0200008612046BDE8F041FFF7BC
:10119000FABEBDE8F081704770470000006803495F
:1011A000884201D1FFF768BB70470000000400408F
:1011B000704738B5044690F84200202801D002203C
:1011C00038BD51B14AB10120206300206063204640
:1011D00000F014FB216B012901D0012038BD2168EA
:1011E0000A684968009121680C3151E8002F42F0EB
:1011F000100241E80023002BF5D138BD70B504463C
:101200000D48844216D10D4B002203F164009D5C11
:101210008554521C642AFADB0848FFF70BF8642255
:1012200006492046FFF7C5FF05480068016821F020
:101230000801016070BD0000D800002010000020EF
:1012400020010020704770B5040004D094F84100DC
:10125000002510B106E0012070BD84F84050204602
:1012600000F024F8242084F841002068C16821F4AB
:101270000051C160204600F03BFA2068016921F46A
:10128000904101612068416921F02A014161206893
:10129000C16841F40051C1606564202084F84100B8
:1012A00084F842006563002070BD000070B586B010
:1012B000064614216846FEF7BDFF1F493068884284
:1012C00038D11E480025016841F480210160006882
:1012D00000F48020059019481038016841F002019F
:1012E00001600068694600F0020005904FF440601C
:1012F00000900220CDE9010503200390072004900F
:101300000F48FFF7B5F9104C0E4820604FF0006011
:10131000C4E901054014C4E903506561A561E561B4
:10132000256220466562FFF7EFF808B1FFF719F86C
:10133000F463A66306B070BD004800404038024028
:1013400000040240286002402001002090F8423052
:10135000202B01D00220704721B11AB10023036372
:1013600000F04CBA0120704770477047FEE700005C
:10137000094808B5016841F40011016000680022C5
:1013800000F40010009011460C20FFF709FBBDE8A7
:1013900008400C20FFF7F6BA303802400D4808B577
:1013A000016841F080010160016801F08001009155
:1013B000016841F002010160016801F00201009141
:1013C000016841F001010160006800F00100009037
:1013D00008BD0000303802400C4810B50A490160D1
:1013E0004FF4E1314160002181600422C160C0E915
:1013F00004128161C161FFF726FF002803D0BDE818
:101400001040FEF7AEBF10BD00480040D8000020DD
:10141000FEE7FEE7704770477047000030B593B0B5
:1014200030216846FEF706FF14210CA8FEF702FFE4
:101430001C480025016841F080510160006800F0FF
:10144000805011901848016841F4804101600068A3
:10145000022400F4804011900120009000040190CB
:101460008001CDE9064008AA0420402182E813004B
:101470000B906846FFF7D0FB08B172B6FEE70CA9E7
:101480000F2081E831004FF480500F90109002211E
:101490000CA8FFF7B7FA002801D072B6FEE713B028
:1014A00030BD000040380240007000400248016832
:1014B00041F470010160704788ED00E00148FFF7DA
:1014C000D2BD000080010020F0B50268274B284DF6
:1014D000284E294F294C4FF0804C984209D0604546
:1014E00007D0A84205D0B04203D0B84201D0A042F4
:1014F00004D122F0700E4A6842EA0E0298421BD0D4
:10150000604519D0A84217D0B04215D0B84213D0C8
:10151000A04211D01A4DA8420ED01A4DA8420BD0AD
:10152000194DA84208D0194DA84205D0184DA8421F
:1015300002D0184DA84203D122F44075CA682A434C
:101540004D6922F080022A438D68C5620D6885626C
:10155000984201D0A04201D109690163016841F0BC
:1015600004010160012141610260F0BD0000014001
:101570000004004000080040000C0040000401404E
:101580000040014000440140004801400018004074
:10159000001C00400020004070B5846B206840694A
:1015A00094F84110C0F3C0100025212904D118B1CE
:1015B000E584204600F08EF82068406994F84210D7
:1015C000C0F38010222904D118B1E585204600F02F
:1015D0005AF8606C40F0100060642046FFF732FE5D
:1015E00070BD10B50146806B096809684FF00002B4
:1015F000C9052ED4C28501680C3151E8003F23F49F
:10160000807341E80034002CF5D10168143151E8B1
:10161000003F23F0010341E80034002CF5D10168BC
:10162000143151E8003F23F0400341E80034002C1E
:10163000F5D1202180F84210016B012909D1016800
:101640000C3151E8003F23F0100341E80034002C36
:10165000F5D14263016B012902D0FFF785FE10BD71
:10166000818DFFF7CBFD10BD10B5806B012141636B
:10167000016B012902D0FFF778FE10BD818D49086A
:10168000FFF7BCFD10BD01680C3151E8002F22F4BA
:10169000907241E80023002BF5D10168143151E824
:1016A000002F22F0010241E80023002BF5D1016B4D
:1016B000012909D101680C3151E8002F22F01002F4
:1016C00041E80023002BF5D1202180F842100021B1
:1016D0000163704701680C3151E8002F22F0C0020D
:1016E00041E80023002BF5D1202180F841107047FC
:1016F00070B5044600680169E26821F44051114365
:1017000001612169A068E2690843616911430843E6
:101710002168CA6849F20C639A430243CA60206890
:101720004169A26921F44071114341613149206846
:10173000884202D03049884202D1FFF72DFA01E0F9
:10174000FFF71AFAE2690023192164253226B2F55F
:10175000004F626828D0A0FB0101930F9200FEF7B2
:1017600031FD0146B0FBF5F06FF01802504301EB7C
:10177000800006EB0010B0FBF5F000F0F002B1FBCA
:10178000F5F002EB0012B1FBF5F06FF018035843CF
:1017900001EB800006EB0010B0FBF5F000F00F004D
:1017A00021681044886070BDA0FB010192185B4164
:1017B000FEF708FD0146B0FBF5F00201B1FBF5F0C4
:1017C0006FF01803584301EB800006EBC000B0FB3C
:1017D000F5F000F0F80002EB4002B1FBF5F05843E1
:1017E00001EB800006EBC000B0FBF5F000F0070055
:1017F000D6E70000001001400014014038B58162B6
:1018000004468285002013466064222284F8422028
:10181000E56B1F4AEA63E56B1E4A2A64E56B1E4AC4
:10182000EA64E26B10650A462168E06B091DFEF769
:10183000D5FE30B110206064202084F842000120E1
:1018400038BD2068016840680090206948B1206870
:101850000C3050E8001F41F4807140E80012002A6B
:10186000F5D12068143050E8001F41F0010140E834
:101870000012002AF5D12068143050E8001F41F012
:10188000400140E80012002AF5D1002038BD0000D8
:10189000E31500086916000899150008FEE7090716
:1018A000090E002804DB00F1E02080F800147047E6
:1018B00000F00F0000F1E02080F8141D704702E0F6
:1018C00008C8121F08C1002AFAD1704770470020CB
:1018D00001E001C1121F002AFBD17047FEF7D4FFBF
:1018E000FFF79CFDFFF75AFDFFF742FDFFF774FD80
:1018F00064221B491B48FFF729FDFFF76DFD642299
:1019000017491848FFF755FC17480068016821F08F
:1019100008010160DFF84890144E4FF480754FF4D1
:10192000FA774FF0000809F16409002401222946E2
:101930003046FEF795FF3846FEF788FE002229461E
:101940003046FEF78DFF3846FEF780FE641C052CFE
:10195000ECDB89F800800120FEF778FEE5E7000067
:1019600010000020D80000202001002000080240C4
:10197000000610160006101600000000000000000F
:101980000102030406070809000000000102030425
:10199000B01900080000002010000000BE18000868
:1019A000C019000810000020B8050000CE1800087B
:1019B0000100000010000000000000000024F400FE
:040000050800018965
:00000001FF
