:020000040800F2
:10000000785D0020E1010008FB1C0008C31900080E
:10001000F91C000881030008952800080000000072
:10002000000000000000000000000000490100087E
:10003000DF030008000000008D01000855230008C0
:10004000FB010008FB010008FB010008FB010008A0
:10005000FB010008FB010008FB010008FB01000890
:10006000FB010008FB010008FB010008FB01000880
:10007000FB010008FB01000885030008910300084C
:100080009D030008A9030008FB010008FB0100080C
:10009000FB010008FB010008FB010008FB01000850
:1000A000FB010008FB010008FB010008FB01000840
:1000B000FB010008FB010008FB010008FB01000830
:1000C000FB010008FB010008FB010008FB01000820
:1000D000FB0100087D28000889280008FB010008B2
:1000E000FB010008FB010008FB010008FB01000800
:1000F000FB010008FB010008FB010008FB010008F0
:10010000FB010008FB010008FB010008FB010008DF
:10011000FB010008FB010008ED230008FB010008BB
:10012000FB010008FB010008FB010008FB010008BF
:10013000DFF810D000F0A0F800480047B9350008FB
:10014000AFF30080785D0020224B19680868B0E8A2
:10015000F00F80F30988BFF36F8F4FF0000080F33A
:1001600011884EF00D0E7047000000000648006830
:10017000006880F3088862B661B6BFF34F8FBFF3A3
:100180006F8F00DF00BF00BF08ED00E0EFF30980D4
:10019000BFF36F8F0F4B1A6820E9F00F106008B59E
:1001A0004FF0500080F31188BFF34F8FBFF36F8F74
:1001B00003F0F6FF4FF0000080F31188BDE808401F
:1001C00019680868B0E8F00F80F30988BFF36F8FF3
:1001D000704700BF1C000020EFF30580704700004F
:1001E0000648804706480047FEE7FEE7FEE7FEE7D1
:1001F000FEE7FEE7FEE7FEE7FEE7FEE7E92300088D
:100200003101000840EA01039B0703D009E008C957
:10021000121F08C0042AFAD203E011F8013B00F8CB
:10022000013B521EF9D27047D2B201E000F8012B17
:10023000491EFBD270470022F6E710B513460A4666
:1002400004461946FFF7F0FF204610BD30B50B46B7
:10025000014600202022012409E021FA02F59D42F6
:1002600005D303FA02F5491B04FA02F52844151ECA
:10027000A2F10102F1DC30BD064C074D06E0E0685A
:1002800040F0010394E8070098471034AC42F6D3DD
:10029000FFF752FF94460008B4460008344C01258D
:1002A000E07850B13348006803F00AFA324803F0AE
:1002B000D1F9012003F0CEF9F2E701F0C3FB411EB2
:1002C0006071102940D20C283ED2DFE800F03D06D4
:1002D0000C133D181D2238272C31607800EB80006C
:1002E00005EB400004E06078042100EB800023E08F
:1002F0006070DEE76078072100EB80001CE060782A
:10030000022100EB800017E06078052100EB8000FF
:1003100012E06078082100EB80000DE06078032196
:1003200000EB800008E06078062100EB800003E02D
:100330006078092100EB800001EB4000D8E760788D
:1003400000EB80004000D3E70C2805D010280CD02B
:100350000F28AED12571ACE7084AA0786178115416
:1003600000216170401CA070A3E7E570A1E70000C8
:10037000840000200400002040420F00F0450020CF
:10038000FEE70000014800F0E9B80000EC0300209F
:10039000014800F0E3B80000A8030020014800F085
:1003A000DDB8000030040020014800F0D7B800009C
:1003B0007404002030B590F840500124AC40C56B67
:1003C0006C60046863604368102B036803D0996015
:1003D0000068C26030BD9A600068C16030BD70477F
:1003E00072B6FEE710B590F821100022022905D060
:1003F0000421816380F82020012010BD01680B6872
:1004000023F00E030B6001680B6823F001030B60FF
:1004100090F84030C46B012101FA03F3636080F867
:10042000211080F82020104610BD00002DE9F05F5B
:1004300090F821100024022903D0042181630124B3
:1004400085E001680A6822F00E020A6001680A6805
:1004500022F001020A603F4E3E4FB215DFF8F4C0B1
:10046000DFF8F090DFF8ECA0DFF8E8B0DFF8E4E0C8
:100470000168783F13011502ACF1640CA9F1500931
:10048000AAF13C0AABF1280BAEF1140E4FF4801820
:10049000B14227D9B9420ED0614512D049451DD08D
:1004A000514518D0594518D0714501D1424615E043
:1004B000294EB14201D1012210E0274E1436B1423B
:1004C00001D110220AE0244E2836B14206D0224A39
:1004D0003C32914201D11A4600E02A461E49091FCA
:1004E0000A602BE0B94213D0614517D0494522D0AC
:1004F00051451DD059451DD0714501D142461AE0E4
:10050000B14202D14FF0807215E0134EB14201D1D9
:10051000012210E0104E1436B14201D110220AE03F
:100520000D4E2836B14206D00B4A3C32914201D1E1
:100530001A4600E02A46074980394A60012180F8BE
:100540002110002180F82010416B01B1884720461E
:10055000BDE8F09F80000240080402402DE9F05FF2
:10056000C16B0A6801680B68046C4FF0040808FA54
:1005700004F8844D844E854FDFF814C2DFF81492DE
:10058000DFF814A2DFF814B2DFF814E218EA020F61
:1005900065D05FEA437862D50A68920603D40A6898
:1005A00022F004020A60DFF8F0814FF480620168F3
:1005B00008F1140813011402414524D9A9420DD0B1
:1005C000B1420FD0B9421AD0614515D0494515D076
:1005D000514501D1120312E0594501D104220EE028
:1005E000714501D140220AE06D4D1435A94206D073
:1005F0006B4A2832914201D11A4600E022466749EF
:10060000091F0A6029E0A94213D0B14215D0B942AE
:1006100020D061451BD049451BD0514502D14FF434
:10062000800217E0414502D14FF0806212E0594547
:1006300001D104220EE0714501D140220AE0584D5B
:100640001435A94206D0564A2832914201D11A46A1
:1006500000E022464B4908394A60C16A71E04FF018
:10066000020808FA04F818EA020F70D05FEA8378EB
:100670006DD50A68920606D40A6822F00A020A605A
:10068000012180F82110DFF810814FF40072016819
:1006900008F1140813011402414524D9A9420DD0D0
:1006A000B1420FD0B9421AD0614515D0494515D095
:1006B000514501D1120312E0594501D102220EE049
:1006C000714501D120220AE0354D1435A94206D0EA
:1006D000334A2832914201D11A4600E022462F497E
:1006E000091F0A6029E0A94213D0B14215D0B942CE
:1006F00020D061451BD049451BD0514502D14FF454
:10070000001217E0414502D14FF0007212E0594546
:1007100001D102220EE0714501D120220AE0204DD4
:100720001435A94206D01E4A2832914201D11A46F8
:1007300000E02246134908394A60002180F8201061
:10074000816A00291CD0BDE8F05F0847FFE7082553
:10075000A540154214D01A0712D50A6822F00E02DD
:100760000A6090F84020C36B012101FA02F25A603E
:10077000816380F82110002180F82010016BE0E7F0
:10078000BDE8F09F080002401C000240300002401B
:1007900044000240580002406C000240080402403D
:1007A0001C04024030B560B11A4B026814219A4211
:1007B00009D2194B1344B3FBF1F1890001641749C5
:1007C0000AE0012030BD134B5B421344B3FBF1F14F
:1007D000890001640F490839C163022180F82110A2
:1007E000136843F6F0718B43F0E901142143D0E91B
:1007F00002452C4321430469214344692143846910
:10080000214319431160002141630122427701779E
:10081000084630BD08040240F8FFFDBF000002405A
:1008200070B5044690F82000002501280CD0012066
:1008300084F8200094F821600020012E06D084F86E
:1008400020000225284670BD022070BD022684F8D3
:100850002160A0632068066826F001060660204635
:10086000FFF7A8FDE06A00282068016802D041F087
:100870000E0106E021F0040101602068016841F0EA
:100880000A0101602068016841F001010160D9E7B7
:100890002DE9F84FDFF8C8910024A9F1040B234695
:1008A0000F2709F1040AABF1040ED1E00125A540A0
:1008B00006EA0502AA4276D1DFF8A8C14E68A6EB87
:1008C0000C0866452BD00DDC032E34D005DC36B386
:1008D000012E19D0022E2FD11BE0112E16D0122E70
:1008E0002AD119E0B8F5881F19D006DCB8F5803F89
:1008F00015D0B8F5801F1FD111E0B8F5001F0ED03C
:10090000B8F5041F18D10AE0CB6815E0CB681B1DB1
:1009100012E0CB6808330FE0CB680C330CE08B6837
:100920002BB1012B4FF0080303D0456104E00423F1
:1009300002E0056100E00023FF2A01D8064601E03D
:1009400000F104064FEA840501D9A5F12005D6F887
:10095000008007FA05FC28EA0C0803FA05F548EAC6
:100960000508C6F800804D68ED0070D53E4DAE69B3
:1009700046F00106AE61AD6924F0030605F00105FD
:1009800000953A4D06EB050CDCF80850A607360F2B
:1009900007FA06F825EA0805DFF8D480404503D1B8
:1009A0004FF0000825E052E0DFF8C880404502D152
:1009B0004FF001081DE0DFF8C080404502D14FF044
:1009C000020816E0DFF8B480404502D14FF003087A
:1009D0000FE0DFF8AC80404502D14FF0040808E09A
:1009E000DFF8A080404502D14FF0050801E04FF04C
:1009F000060808FA06F848EA0508CCF808804D68A9
:100A0000D9F80060ED024D4601D5164300E096434B
:100A10002E604D68DAF80060AD02554601D51643E8
:100A200000E096432E604D68DBF80060AD035D4644
:100A300001D5164300E096432E604D68DEF8006055
:100A4000ED03754601D5164300E096432E60641C05
:100A50000A681646E2407FF429AFBDE8F88F00002F
:100A60000804014000001110001002400000014085
:100A700000080140000C014000100140001401403A
:100A800000180140001C01408068084000D001208F
:100A900070470AB1016170470904FBE701488068AB
:100AA000704700000C000020024881680278114461
:100AB000816070470C000020074810B5016841F0C4
:100AC00010010160032000F0A7F80F2000F006F8E5
:100AD00000F050F8002010BD0020024030B505465F
:100AE0001F4887B0C16941F01001C161C06906A902
:100AF00000F01000009001A800F036F90498B0B1A1
:100B000000F052F940001749174AB0FBF1F11748BD
:100B1000491E0260416040F2E7320021C0E9032132
:100B20008160816100F03CFB040003D015E000F01F
:100B30003BF9E8E70D4800F061FB04000DD13620D9
:100B400000F03CF8102D07D200222946362000F094
:100B500043F80748056000E0012407B0204630BD97
:100B60000010024040420F0000100040B804002076
:100B7000100000200F4808B5816941F00101816132
:100B8000816901F001010091C16941F08051C161A9
:100B9000C069002200F0805000900F21901E00F0EC
:100BA0001BF80548416821F0E06141F000714160A7
:100BB00008BD00000010024000000140002809DBD1
:100BC00000F01F02012191404009800000F1E02067
:100BD000C0F8001170470000F0B40E4B1B680C46C3
:100BE000C3F30223C3F10705042D00D90425191D01
:100BF000072901D2002300E0DB1E012606FA05F1D9
:100C0000491E214099409E40761E16403143F0BC5B
:100C100001F066BE0CED00E0064900F0070208682E
:100C20004FF6FF03184040EA0220034A10430860D1
:100C3000704700000CED00E00000FA052DE9F047D8
:100C40000F46050061D0434E306800F00700B842FF
:100C500009D2306820F0070038433060306800F077
:100C60000700B84251D128683B4C810712D5400794
:100C700003D5606840F4E06060602878000703D521
:100C8000606840F4605060606068A96820F0F0001F
:100C9000084360602878C00728D06868012810D011
:100CA0002168022810D0890700292EDA616821F016
:100CB000030101436160FFF7F1FE804641F288398C
:100CC0000DE021688903EFE78901EDE7FFF7E6FE14
:100CD000A0EB0801494502D90320BDE8F087606810
:100CE000696800F00C00B0EB810FEFD1306800F0C4
:100CF0000700B8420BD9306820F007003843306055
:100D0000306800F00700B84201D00120E5E72878FC
:100D1000400705D56068E96820F4E060084360603A
:100D20002878000706D56068296920F4605040EAF9
:100D3000C100606000F058F86168084AC1F303110F
:100D4000515CC8400649086006480068FFF7C6FEC7
:100D50000020C2E700200240001002404A4500087F
:100D600018000020100000200F2202600C4A536877
:100D700003F003034360536803F0F0038360536898
:100D800003F4E063C36052684FF4E06303EAD20205
:100D900002610448006800F0070008607047000026
:100DA00000100240002002400448054900684968DC
:100DB000044AC1F30221515CC8407047180000206A
:100DC000001002405A450008044805490068496877
:100DD000044AC1F3C221515CC8407047180000208A
:100DE000001002405A4500080E4A51680E4801F0B2
:100DF0000C03042B11D0082B0FD10C48C1F38343F3
:100E0000C903C05C0AD55168084AC1F34041921E2B
:100E1000515C054A5043B0FBF1F070470449484328
:100E2000704700000010024000127A003A450008A6
:100E300000093D0030B585B00020029002200190ED
:100E4000032003900B4C4FF480700090A0690D4676
:100E500040F00400A061A069694600F0040004901D
:100E60000548FFF715FD606820F0E06028436060EA
:100E700005B030BD00100240000801402DE9F84FD8
:100E8000040070D02078C04DC00749D06868C0F316
:100E90008100012807D06868C0F38100022809D1C9
:100EA0006868C00306D52868800339D560680028C3
:100EB000E7D035E06068B0F5803F0BD010B1B0F5F9
:100EC000A02F11D0286820F480302860286820F4F2
:100ED000802002E0286840F480302860606890B18B
:100EE000FFF7DCFD06460AE0286840F48020286011
:100EF000F0E700BFFFF7D2FD801B642873D8286895
:100F00008003F7D50CE0FFF7C9FD064605E000BFFA
:100F1000FFF7C4FD801B6428F0D828688003F7D44D
:100F200020789A4E80074FF001094FF0000839D51C
:100F3000686810F00C0F07D06868C0F381000228C1
:100F400009D16868C00306D42868800714D52069D1
:100F5000012808D110E02069B0B1C6F80090FFF771
:100F60009DFD074605E00AE1FFF798FDC01B02283A
:100F7000C4D828688007F7D52868616920F0F80090
:100F800040EAC10028600DE0C6F80080FFF786FD4A
:100F9000074604E0FFF782FDC01B022823D828681B
:100FA0008007F7D4207800072CD57948A169D9B1FA
:100FB000C0F80090FFF772FD074604E0FFF76EFDF2
:100FC000C01B02280FD8686A8007F7D571484FF414
:100FD000FA510068B0FBF1F0009000BF0098411E8C
:100FE0000091FAD20EE080E0C0F80080FFF756FDD5
:100FF000074604E0FFF752FDC01B022875D8686A57
:101000008007F7D42078400760D5E8690027C00042
:1010100008D4E86940F08050E861E869012700F0F1
:10102000805000905C480168C90513D4016883466C
:1010300041F480710160FFF731FD824606E000BF98
:10104000FFF72CFDA0EB0A0064284ED8DBF8000067
:10105000C005F5D5E06801280AD008B1052813D0ED
:10106000286A20F001002862286A20F0040002E0CB
:10107000286A40F001002862E06841F2883B98B19C
:10108000FFF70CFD82460BE0286A40F0040028625E
:10109000EEE700BFFFF702FDA0EB0A0159455AD861
:1010A000286A8007F6D50CE0FFF7F8FC824605E0D9
:1010B000FFF7F4FCA0EB0A0159454CD8286A8007D9
:1010C000F6D41FB1E86920F08050E861E06988B388
:1010D0006968C1F38101022944D00228C6F8608002
:1010E00004D0FFF7DBFC044638E034E0FFF7D6FC21
:1010F000074604E0FFF7D2FCC01B02282BD8286863
:101100008001F7D4206AB0F5803F05D16868A168F6
:1011100020F4003008436860D4E908010843696896
:1011200021F4741108436860C6F86090FFF7B6FCBC
:10113000044606E025E000BFFFF7B0FC001B0228D4
:1011400009D828688001F7D51BE000BFFFF7A6FC8F
:10115000001B022802D90320BDE8F88F286880010F
:10116000F4D40EE00128F7D06868226A00F48031D8
:10117000914204D1616A00F47010884201D00120CC
:10118000EAE70020E8E700000010024000004242C9
:1011900080044242180000200070004070477047F1
:1011A00010B5040003D094F83D0010B107E0012011
:1011B00010BD002084F83C00204600F01EF80220FC
:1011C00084F83D00211D206801F016F9012084F803
:1011D000460084F83E0084F83F0084F8400084F81C
:1011E000410084F8420084F8430084F8440084F805
:1011F000450084F83D00002010BD704790F83D1078
:10120000012901D001207047022180F83D100168BA
:10121000CA6842F00102CA6000680E4988420ED0D6
:101220000D4988420BD0B0F1804F08D00B4988425D
:1012300005D00B49884202D00A49884204D181680E
:1012400001F00701062903D0016841F001010160A6
:1012500000207047002C0140003401400004004091
:1012600000080040000C004070472DE9F0410446A2
:101270000068C66805694FF00007A90713D5B107D4
:1012800011D5F91E0161012020772068806980074F
:10129000204602D0FFF7E8FF04E000F07EF8204689
:1012A00000F07CF82777680716D5700714D52168F9
:1012B0006FF004000861022020772068806910F434
:1012C000407F204602D0FFF7CFFF04E000F065F832
:1012D000204600F063F82777280715D5300713D587
:1012E00021686FF008000861042020772068C06939
:1012F0008007204602D0FFF7B7FF04E000F04DF86A
:10130000204600F04BF82777E80616D5F00614D5EE
:1013100021686FF010000861082020772068C069FC
:1013200010F4407F204602D0FFF79EFF04E000F05B
:1013300034F8204600F032F82777E80708D0F007A5
:1013400006D021686FF001000861204600F028F8FF
:10135000280608D5300606D521686FF080000861A0
:101360002046FFF71BFF680608D5700606D52168E2
:101370006FF040000861204600F01CF8A8060AD56E
:10138000B00608D521686FF0200008612046BDE84E
:10139000F041FFF704BFBDE8F081704770470000DF
:1013A00000680349884201D1FFF77EBB7047000007
:1013B00000100040704738B5044690F842002028DD
:1013C00001D0022038BD51B14AB101202063002074
:1013D0006063204601F0D0F9216B012901D0012082
:1013E00038BD21680A684968009121680C3151E8CC
:1013F000002F42F0100241E80023002BF5D138BD48
:1014000070B5204A0023904229D11F4C4FF4FA6254
:101410001E4D22601E4C0022A65CAE54521C042AB3
:10142000FADB1B4D0022143D02E0AE5CA654521CB8
:101430008A42FADB174A0121117000216B54491CC2
:10144000C9B20A29FAD312490A221439FFF7B3FFA5
:1014500011480068016821F00401016070BD0F4966
:101460008842FBD10A4A00210A3A5354491CC9B2A6
:101470000A29FAD3BDE8704005490A220A39FFF764
:101480009ABF0000180300208C000020BC00002040
:10149000684600208A000020A80300206003002086
:1014A00070470000F8B5016804460868CA684B69CF
:1014B00010F00F0F4FF0000559D003F0010602F4B1
:1014C0009077374365D0C10705D0D10503D5616C4E
:1014D00041F001016164410705D5D90703D0616C72
:1014E00041F002016164810705D5D90703D0616C21
:1014F00041F004016164010707D502F02001314386
:1015000003D0616C41F008016164616C00293AD03C
:10151000800604D5900602D5204601F06FF82068B9
:101520004069616CC0F38010090700D460B32046A5
:1015300001F02FF820684069400621D5206814305A
:1015400050E8001F21F0400140E80012002AF5D1C8
:10155000E06BA8B16D494163E06BFEF767FF0028BF
:1015600011D0E06B416B01B0BDE8F0400847830645
:101570000FD593060DD52046BDE8F84001F03EB8E2
:101580002046FFF78DFFF8BD2046FFF789FF656411
:10159000F8BD266B2023012E7CD1C6067AD5D6064F
:1015A00078D508684868009048694FF00206400600
:1015B00040D5E16B086840680004000CE8D0A28DBB
:1015C0008242E5D9E085886920282DD020680C303A
:1015D00050E8001F21F4807140E80012002AF5D184
:1015E0002068143050E8001F21F0010140E800128B
:1015F000002AF5D12068143050E8001F21F0400186
:1016000040E80012002AF5D184F8423025632068B2
:101610000C3050E8001F21F0100140E80012002AB1
:10162000F5D1E06BFEF7DEFE6663A08DE18D401A1A
:1016300081B22AE0A08DE18D401A81B2E08D0028B0
:10164000A6D00029A4D022680C3252E8000F20F462
:10165000907042E80007002FF5D12068143050E860
:10166000002F22F0010240E80027002FF5D184F876
:101670004230256320680C3050E8002F22F0100221
:1016800040E80023002BF5D166632046FFF7B8FE43
:10169000F8BDFFE705062BD5150629D594F84100BE
:1016A0002128F5D1A068B0F5805F01D12069B0B1E3
:1016B000206A411C2162216800784860E08C401E4D
:1016C0000004000CE084E3D12068C16821F08001AF
:1016D000C1602068C16841F04001C160D8E7206A5C
:1016E0000088C0F308004860206A801C2062E5E79B
:1016F0004006CDD55006CBD5CA68204622F0400220
:10170000CA6084F8413000F05BF9C1E79524000815
:1017100070B5040004D094F84100002510B106E033
:10172000012070BD84F84050204600F023F82420AA
:1017300084F841002068C16821F40051C16020464E
:1017400000F0BEFF2068016921F49041016120682A
:10175000416921F02A0141612068C16841F40051CA
:10176000C1606564202084F8410084F8420065630C
:10177000002070BD2DE9F04186B00025009501954F
:10178000029503950446DFF860C1036857480221BB
:101790000322574F80264FF0100863454CD18369D0
:1017A00043F480438361836903F480430493836932
:1017B00043F0040383618069039200F00400049005
:1017C0000802CDE9000169463846FFF761F8F000EC
:1017D000CDE90005694638460295FFF759F8464FAE
:1017E0004448C7E90005C7E902563D617D61BD6116
:1017F0003846FD61FEF7D6FF08B1FEF7F1FDE7635D
:101800007C623D4F3B4844371438C7E902563D617E
:101810007D61BD61FD61C7E900083846FEF7C2FF82
:1018200008B1FEF7DDFDA7630022052125207C62BB
:10183000FFF7D2F9252051E0DFF8C0C063454FD152
:10184000C36943F40033C361C36903F400330493F1
:10185000836943F0040383618069039200F004000C
:1018600004900420CDE9000169463846FFF710F8DE
:101870000820CDE90005694638460295FFF708F8CB
:101880001D4F1C4888371430C7E90005C7E90256C8
:101890003D617D61BD613846FD61FEF783FF08B1A2
:1018A000FEF79EFDE7637C62134F1248CC37283069
:1018B000C7E902563D617D61BD61FD61C7E9000870
:1018C0003846FEF76FFF08B1FEF78AFDA7630022D6
:1018D000052126207C62FFF77FF92620FFF76EF9AD
:1018E00006B0BDE8F0810000003801400010024061
:1018F0000008014058000240A803002000440040B6
:1019000090F84230202B01D00220704721B11AB14B
:101910000023036300F030BF012070477047704719
:101920002DE9F843044690F84100984616460D46C6
:10193000202802D00220BDE8F88385B17EB10020C6
:101940006064212084F84100FFF7A8F8A68481464E
:10195000E684A0682027B0F5805F02D003E0012074
:10196000E9E7206910B12E4600250EE000260CE0C4
:101970008021204600F048FFA8B9C6B116F8010B37
:1019800021684860E08C401EE084E08C4B464FF0BC
:101990000002CDF800800028EAD14FF04001204637
:1019A00000F032FF40B184F841700320C3E735F8FE
:1019B000020BC0F30800E3E784F841700020BAE7A7
:1019C0007047FEE770B51D4D4FF480712846FFF754
:1019D0005BF81B4CC000691520702846FFF754F8CF
:1019E000217841EA8000207029152846FFF74CF83D
:1019F000217841EA40002070E9142846FFF744F8B6
:101A00002178084320700F280DD00A2001F022FE13
:101A100020780F2807D0072807D00B2807D00D28DB
:101A200007D00E2807D0002070BD012070BD022015
:101A300070BD032070BD042070BD00000014014083
:101A4000840000202DE9F0412F4E00244FF48057F0
:101A5000224639463046FFF71CF8FFF7B3FF050072
:101A600005D000BFFFF7AEFF0028FBD12C460122B6
:101A7000394635463046FFF70CF84FF40057002240
:101A800039462846FFF705F8FFF79CFF060005D00A
:101A9000FFF798FF0028FBD1361DF4B2012239462A
:101AA0002E462846FEF7F5FF4FF4804700223946C0
:101AB0003046FEF7EEFFFFF785FF050006D000BFBA
:101AC000FFF780FF0028FBD10835ECB20122394630
:101AD0003046FEF7DEFF4FF400470022394630461D
:101AE000FEF7D7FFFFF76EFF050005D0FFF76AFF8F
:101AF0000028FBD10C35ECB2012239463046FEF706
:101B0000C8FF2046BDE8F081000C0140154808B52B
:101B1000416941F0010141614069002200F001008A
:101B2000009005210E20FFF757F80E20FFF746F82A
:101B3000002205210F20FFF74FF80F20FFF73EF896
:101B4000002205211020FFF747F81020FFF736F894
:101B5000002205211120FFF73FF8BDE808401120C1
:101B6000FFF72CB80010024010B596B01C221149A6
:101B70006846FEF747FB0021684601F077FD0E4CF2
:101B80000C491C2260601C3107A8FEF73BFB0021BA
:101B900007A801F06BFD074920601C2238310EA810
:101BA000FEF730FB00210EA801F060FDA06016B02A
:101BB00010BD0000E4440008000000202DE9F043BF
:101BC00085B000242C480094019402940394816908
:101BD00041F010018161816901F010010491816976
:101BE00041F004018161816901F00401049181697E
:101BF00041F008018161816901F008010491816966
:101C000041F0200181618069DFF8709000F02000D0
:101C10000490002201214846FEF73BFFDFF8608078
:101C20004FF47047002239464046FEF732FF012547
:101C3000022603960095CDE9015469464846FEF711
:101C400027FE00970396CDE9015469464046FEF70A
:101C50001FFE38118DE8310069460A48FEF718FE6C
:101C60002802CDE90006694648460396FEF710FEB5
:101C700005B0BDE8F08300000010024000080140FC
:101C8000000C0140001401400C4810B50A490160E5
:101C90004FF4E1314160002181600C22C160C0E954
:101CA00004128161C161FFF733FD002803D0BDE854
:101CB0001040FEF795BB10BD00380140180300200E
:101CC0000C4810B50A4901604FF4E1314160002130
:101CD00081600C22C160C0E904128161C161FFF71B
:101CE00017FD002803D0BDE81040FEF779BB10BDFA
:101CF0000044004060030020FEE7FEE7CCB04FF058
:101D0000000A4FF00A0BFE480078012803D0642037
:101D100001F0A0FCF7E7FC22FA490CA8FEF772FAE2
:101D2000FA4900200CACF84B0978D0460EE01D5C57
:101D30005A46B5FBF2F6B5FBFBF706EBC6060BFB06
:101D4000175504EB8606401C46F825808842EEDBDA
:101D50000020EF4C451E00BF44F8205004EB8001EA
:101D6000401CC1F890516428F6DBE9490CA801F049
:101D700059FD00204FF0FF3144F8201004EB8002A1
:101D8000401CC2F890116428F4DB0122E0490CA841
:101D900001F0ACFD4B90002803DD0146DC4801F06A
:101DA00095FC0025DB4E4CE03C214FF44872CDE918
:101DB0000021D7480B464746CDF808804FF4827281
:101DC000D5A1403800F078FDD14982B24FF0FF39FB
:101DD00030624B464039D648FFF7A2FD6DB354F848
:101DE0002500C0EB0010820004EB85005A32D0F8C9
:101DF00090310297C3EB03139B0003F59173CDE978
:101E0000003250F8041C5A22C1EB0111D0F88C01A9
:101E100002EB8103C0EB00104FF4917101EB8002E3
:101E2000BB48BDA1403800F047FDB94982B23062DD
:101E30004B464039BE48FFF773FD022001F00AFC13
:101E40006D1CB0698542AFDB05464B98471E33E0F9
:101E500054F825001F22C0EB0010810004EB850020
:101E60005031D0F89031C3EB03139B0003F5967308
:101E70000093CDE9011250F8041C5022C1EB01116E
:101E8000D0F88C0102EB8103C0EB00114FF4967087
:101E900000EB81029E48A0A1403800F00DFD9C4956
:101EA00082B230624FF0FF334039A148FFF738FD6E
:101EB000022001F0CFFB6D1CBD42C9DB02E0012016
:101EC00001F0C8FB9B4800780028F8D000254FF4AB
:101ED000C87799A000F0E0FC384601F0BBFB6D1C10
:101EE0001E2DF6DBC24686F80180F2E1687804EB2D
:101EF0008001D1F8902154F8201091A000F0CCFC82
:101F0000304601F0A7FBE869401CE86103E000BF30
:101F1000E8694FF496760A28E8DB0122EA706B78CC
:101F20000021581E04EB830610E000BF54F8217016
:101F300054F823C0674508D104EB8107D6F890C157
:101F4000D7F89071674500D10022491C8142EDDD30
:101F50007048012AC2707BD16E4A00207A4D24322B
:101F6000914602F800A005F800A0401C0428F7DB09
:101F70000026DFF8A08198F8010004EB8001D1F879
:101F8000902154F820106EA000F086FC2878697823
:101F9000EA780844A978114401442879C14203D061
:101FA00041460120887009E0C82001F053FB761CEF
:101FB000072EDEDB57488078012869D14E4600277E
:101FC000A946002001254946325C0B5C934200D9AA
:101FD0003554401C0428F7DB98F8010004EB80011D
:101FE000D1F8902154F8201055A000F055FCC820DD
:101FF00001F030FB7F1C0F2FE3DB46490020B64683
:102000004B78DFF8489100EB400101EBC00700225C
:1020100004EB83081EF8006007EB090110E000BF25
:1020200014F8237098F890C107EB87070CEB47076B
:1020300091F80AC00CF801708F7A7F1C8F72521CC5
:102040009642EDDC401C0428DBDB00274E4633E0E3
:1020500031E1F25D5846B2FBF0F1B2FBFBF00BFB55
:102060001121C0F107022220491CCDE90802CDE967
:102070000A100320CDE90405CDE90650282200927C
:102080001E21CDE9011A07EB8700C200322300E0D0
:102090000CE12FA13B48CDF80CA000F00DFC3A4913
:1020A00082B24FF0FF33086036492148FFF738FC11
:1020B000052001F0CFFA7F1CB07AB842C9DC0027B6
:1020C00079E0F0195946C27AB2FBF1F0B2FBFBF1AC
:1020D0000BFB1020C1F107022221401CCDE90A01AF
:1020E000CDE908120320CDE90405CDE906502822E8
:1020F0001E210092CDE9011A07EB8700C20045E0DE
:102100008800002084450008F0450020860000205B
:1021100058520020940000206C696E652025642CC4
:1021200025642C25642C25642C2564FFFFFF00000A
:1021300060030020870000205B392C395D0000001F
:102140005B25642C25645D00684600207C460020E9
:10215000787374722025642C25642C25642C2564E6
:102160002C25642C25642C25642C25642C25642CBA
:1021700025642C25634125644225642563FFFFFF08
:1021800000000000B3460020900000209623AFF22C
:1021900040016948CDF80CA000F08EFB674982B27F
:1021A0004FF0FF33086064496548FFF7B9FB05202D
:1021B00001F050FA7F1C707DB84282DC0027D046C7
:1021C00032E0F01908AB817D5846B1FBF0F2B1FB6B
:1021D000FBF00BFB1212C0F107012220521C83E816
:1021E00007000B900320CDE90405CDE90650282215
:1021F00000921E21CDE9011807EB8700C200FA23E7
:10220000AFF2B4014C48CDF80C8000F055FB4B49BF
:1022100082B24FF0FF33086047494948FFF780FB1F
:10222000052001F017FA7F1C96F82000B842C8DCA0
:10223000002734E0F019594690F821204FF4AF738D
:10224000B2FBF1F0B2FBFBF10BFB1020C1F1070276
:102250002221401CCDE90A01CDE908120320CDE975
:102260000405CDE9065028211E220091CDE9012860
:1022700007EB8700C200AFF228112F48CDF80C8081
:1022800000F01AFB2D4982B24FF0FF3308602A4953
:102290002B48FFF745FB052001F0DCF97F1C96F881
:1022A0002B00B842C6DC274981F80280254981F815
:1022B00002A0C1F81CA0234A0020234B243251461F
:1022C00011541954401C0428FADB1E494878401C5C
:1022D00048701C4D6878A9698842FFF619AE287EBF
:1022E00068704FF49676574618E0687804EB8001E2
:1022F000D1F8902154F82010AFF2BC1000F0CCFAC5
:10230000304601F0A7F9E869401CE86100E0E8699F
:102310000728EADBEF616878401C6870C1B24B980F
:102320008142F4DBC8B20949401E68700F70084949
:1023300085F800B00F70E6E4B3460020900000205E
:1023400060030020940000206846002087000020E1
:102350008800002010B5502080F31188BFF34F8F04
:10236000BFF36F8F01F0F6FF18B104494FF08050B2
:102370000860002080F3118810BD000004ED00E02B
:1023800030B58FB028216846FDF755FF14210AA803
:10239000FDF751FF01210804CDE90010002402944B
:1023A00002250491CDE907504FF4E01009906846EA
:1023B000FEF764FD08B172B6FEE70F20CDE90A050D
:1023C0004FF48060CDE90C4002210AA80E94FEF77C
:1023D00035FC08B172B6FEE700224FF0E06110460E
:1023E000FEF728FD0FB030BD704700000148FEF732
:1023F0003CBF0000B8040020F0B50268204C214D1D
:10240000214E224F224B4FF0804CA04209D09842DF
:1024100007D0604505D0A84203D0B04201D0B842F1
:1024200004D122F0700E4A6842EA0E02A04209D09E
:10243000984207D0604505D0A84203D0B04201D0F1
:10244000B84203D122F44075CA682A434D6922F08C
:1024500080022A4302608A68C2620A688262A042DD
:1024600001D0984201D109690163012141610169EB
:10247000C90703D0016921F001010161F0BD00002D
:10248000002C01400004004000080040000C004007
:102490000034014010B5406A0021C185C184FEF7B7
:1024A000FFFF10BD70B5446A2068406994F8411080
:1024B000C0F3C0100025212904D118B1E5842046BD
:1024C00000F08EF82068406994F84210C0F3801044
:1024D000222904D118B1E585204600F05AF8606C35
:1024E00040F0100060642046FEF7DAFF70BD10B5C2
:1024F0000146406A096809684FF0000289062ED437
:10250000C28501680C3151E8003F23F4807341E833
:102510000034002CF5D10168143151E8003F23F05C
:10252000010341E80034002CF5D10168143151E871
:10253000003F23F0400341E80034002CF5D1202176
:1025400080F84210016B012909D101680C3151E872
:10255000003F23F0100341E80034002CF5D1426322
:10256000016B012902D0FFF7D9F910BD818DFEF76B
:1025700047FF10BD10B5406A01214163016B01297D
:1025800002D0FFF7CCF910BD818D4908FEF738FF66
:1025900010BD01680C3151E8002F22F4907241E81F
:1025A0000023002BF5D10168143151E8002F22F0EF
:1025B000010241E80023002BF5D1016B012909D16B
:1025C00001680C3151E8002F22F0100241E800238D
:1025D000002BF5D1202180F84210002101637047C3
:1025E00001680C3151E8002F22F0C00241E80023BD
:1025F000002BF5D1202180F84110704708B590F8E4
:102600004210222901D0022008BD82684FF4805375
:102610009A4201D1016921B1816A9A421BD04AB123
:102620000AE00268816A5268C2F308020A80816A7D
:10263000891C08E0026972B10268526802F07F02E8
:102640000A70816A491C8162C18D491E0904090C06
:10265000C18503D01BE002685268F1E70168CA68CF
:1026600022F02002CA600168CA6822F48072CA603F
:1026700001684A6922F001024A61202180F8421073
:1026800000214163026B012A03D0FFF747F90020C4
:1026900008BD016301680C3151E8002F22F01002DF
:1026A00041E80023002BF5D101680A68D20602D563
:1026B0000A6849680091818DFEF7A2FEE7E70000F5
:1026C00070B5044600680169E26821F44051114385
:1026D00001612169A0680843616908432168CA68EB
:1026E00041F20C639A430243CA6020684169A269BF
:1026F00021F44071114341611E492068884202D192
:10270000FEF762FB01E0FEF74FFB00EBC00101EBBF
:102710000012606864218000B2FBF0F3B3FBF1F3B8
:102720006FF018067343B2FBF0F5B2FBF0F605EB61
:102730008305322303EB0515B5FBF1F5B6FBF1F686
:1027400005F0F00505EB0615B2FBF0F6B2FBF0F074
:10275000B0FBF1F06FF01802504306EB800003EB82
:102760000010B0FBF1F0216800F00F0028448860F1
:1027700070BD00000038014038B581620446828592
:10278000002013466064222284F84220E56B1B4A35
:10279000AA62E56B1A4AEA62E56B1A4A2A63E26B9F
:1027A00050630A462168E06B091DFEF739F820687E
:1027B000016840680090206948B120680C3050E8FA
:1027C000001F41F4807140E80012002AF5D1206812
:1027D000143050E8001F41F0010140E80012002AC7
:1027E000F5D12068143050E8001F41F0400140E866
:1027F0000012002AF5D1002038BD0000EF240008A7
:1028000075250008A52400082DE9F84398461746C9
:102810000D460446089E24E0701C22D0FEF73EF9C7
:10282000A0EB0800B0421AD8CEB12068C1684907B1
:1028300017D5802D15D0402D13D00168C943090745
:102840000FD401680025406800902046FFF7A1FEE4
:102850000820606484F840500120BDE8F88303201C
:10286000FBE72068006835EA000004D00020B84289
:10287000D2D00020F1E70120F9E700000148FEF77F
:1028800011BE0000180300200148FEF70BBE000037
:1028900060030020FEE700000FB4054B10B503A94C
:1028A000044A029800F03CF810BC5DF814FB0000EC
:1028B0003D300008C00000200FB4084B10B504A93B
:1028C00002AA039800F02CF8044602A9002000F0A8
:1028D000C8F9204610BC5DF814FB0000632C00080A
:1028E0000907090E002804DB00F1E02080F800143D
:1028F000704700F00F0000F1E02080F8141D7047D1
:1029000002E008C8121F08C1002AFAD170477047B8
:10291000002001E001C1121F002AFBD17047000016
:102920002DE9FF4F8BB088460546002606E0252896
:102930000BD0DDE90D1290476D1C761C287800281D
:10294000F5D10FB03046BDE8F08F0024A146A24675
:102950000122AE4900E0044315F8013F203B02FA92
:1029600003F00842F7D128782A2810D06FF02F0200
:102970002878A0F13001092915D809EB890102EB6B
:10298000410144F0020400EB01096D1CF0E758F826
:10299000041B5FEA010903D544F40054C9F100099E
:1029A00044F002046D1C28782E2817D115F8010F69
:1029B00044F004042A280ED06FF02F022878A0F1EA
:1029C000300109290AD80AEB8A0102EB410100EB28
:1029D000010A6D1CF2E758F804AB6D1C28786C28CE
:1029E0000FD006DC4C2817D068280DD06A2814D1E7
:1029F00004E0742810D07A280FD10DE044F40014BC
:102A00000AE044F4801401E044F4401469788142FF
:102A100002D104F580146D1C6D1C2878692865D0DE
:102A200006DC00288DD0632827D0642806D15DE01D
:102A30006E2808D073282AD0752877D0DDE90D12CA
:102A40009047761CE0E0C4F30250022809D0032826
:102A50000DD0D8F8001004280DD00E6008F104083D
:102A6000D2E0D8F80010F217C1E90062F6E7D8F812
:102A700000100E80F2E70E70F0E718F8041B8DF8D6
:102A8000001000208DF80100EB46012003E058F80B
:102A900004BB4FF0FF3061074FF0000701D40AE09C
:102AA0007F1C57450DDA8742FADB1BF80710002917
:102AB000F6D106E07F1C8742FCDB1BF807100029DB
:102AC000F8D1DDE90D23A9EB07008146214600F08E
:102AD000B1F83044C61904E0DDE90D121BF8010B12
:102AE00090477F1EF8D22146484688E058F8040BEC
:102AF000C4F302514FF00A0B032900D100B204299C
:102B000000D140B2002802DA40422D2102E0210526
:102B100005D52B218DF82410012104E006E0E10702
:102B200010D02021F6E708AF089113E058F8040B05
:102B3000C4F302514FF00A0B032900D180B20429DB
:102B400000D1C0B20021EEE75946FDF77FFB3031DE
:102B500007F8011D0028F7D1ADEB070000F1200BAD
:102B6000600702D524F4803401E04FF0010ADA4511
:102B700002DDAAEB0B0000E00020824600EB0B0117
:102B800008980144A9EB01000A90E00306D4DDE9AE
:102B90000D2321460A9800F04DF806444FF0000935
:102BA00008E009A911F80900DDE90D12904709F1C3
:102BB0000109761C08998945F3DBE0030CD5DDE9B2
:102BC0000D2321460A9800F035F8064404E0DDE9BB
:102BD0000D1230209047761CBAF10001AAF1010ACB
:102BE000F5DC05E0DDE90D1217F8010B9047761CC6
:102BF000BBF10001ABF1010BF4DC0A982146DDE9E1
:102C00000D2300F005F806446D1C97E60928010025
:102C10002DE9F041044600251E461746880404D4D9
:102C200005E039462020B0476D1C641EF9D52846C2
:102C3000BDE8F0812DE9F041044600251E4690468E
:102C4000C80301D5302700E02027880404D505E01B
:102C500041463846B0476D1C641EF9D52846BDE88C
:102C6000F0810A68531C0B601070704770B50C4BF4
:102C700000200C4C0246986002EBC205002104EBD8
:102C8000850500BF55F82160012E00D1401C491C6C
:102C90000929F7DB521C072AEEDB986070BD0000A3
:102CA000940000207C4700202DE9FC5F0D4606467D
:102CB00000F0E8F918B1324A5068632802DB0020BE
:102CC000BDE8FC9F2F4941F8206001EB8001401CCA
:102CD000C1F890512B49506006EBC60040390844BA
:102CE000435D23B901234355D068401CD060914611
:102CF000D268D9F80800824202D101F075F836E0B6
:102D0000DFF884A04FF0000844460AF1100B00BF22
:102D10005AF8240087195BF82400431919463846ED
:102D200000F0B0F968B1174807EBC7014038084414
:102D3000C05C30B94FF0010819463846FFF7B4FFC0
:102D4000A8B9641C042CE3DBB8F1000F11D1D9E958
:102D5000020181420DDA01AB6A462946304600F095
:102D600015F830B1DDE90001FFF79EFF08B1012041
:102D7000A6E7D9F80410491EC9F804109FE700001F
:102D800094000020B8480020644500082DE9FF4F5A
:102D9000ADF23C4D8B4682464021FCA8FDF74BFA34
:102DA0000AEBCA07FCA83844CDF8F8A1CDF8F4B274
:102DB0004FF00109CDF8FCB0CDF800A0002300F8D9
:102DC0000B907EA8002550F82360BDA850F8237012
:102DD0005DF82300CDF834043FA850F823005B1CB5
:102DE000CDF830042C4850F8250000EB06082A489E
:102DF000103050F82500C4192146404600F042F931
:102E0000B0B308EBC800FCA901440A5D82BB234AA9
:102E10001044005D88B1012008557EA8564540F851
:102E20002980BDA840F8294023D15F4521D13FA882
:102E30004DF8298040F8294024E0564509D15F45E6
:102E400007D1DDF84414C1F80080DDF848040460BF
:102E500009E0DDF84414DDF834040860DDF84814B6
:102E6000DDF83004086001200DF24C4DBDE8F08F14
:102E70000AE0DDF834144DF829103FAADDF83004DB
:102E800042F8290009F101096D1C042DAADB4B450C
:102E900097DB0020E8E70000644500087848002040
:102EA0002DE9FF4FADF27C7D834640210DF5E260B8
:102EB000DDF8B447FDF7BFF94FF0FF352A46FC2196
:102EC0000DF5A360FDF7B0F92A46FC210DF2146060
:102ED000FDF7AAF90BEBCB050DF5E262CDF820B3B7
:102EE0001544DDF88027DDF880174FF0010ACDF892
:102EF0001C14002605F802A0CDF87467C8A850F885
:102F00002670FC3050F82680DDF88407761C874256
:102F100003D1DDF88817884546D00025464850F88B
:102F2000250000EB07094448103050F825104846AA
:102F300001EB0803194600F0A5F848B309EBC900F6
:102F40000DF5E2610144CA5C12BB0122CA540DF5C1
:102F5000A36101EB800141F823700DF2146101EBD4
:102F600080000DF21C4140F82380C8A840F82A9048
:102F700041F82A30DDF884170AF1010A894507D1A2
:102F8000DDF88807834203D10120CDF8740702E001
:102F90006D1C042DC2DBDDF87407564502DA0028EB
:102FA000ACD001E0002843D000200DF5A3660DF25F
:102FB00014676B4664ADDDF88427DDF8881710E0F0
:102FC00043F8202002EBC20C45F8201006EB8C02DF
:102FD00007EB8C0C52F821205CF82110401C632870
:102FE00005DA5A45ECD1DDF880C76145E8D143F8F0
:102FF00020B0DDF8801745F820100021216000285E
:1030000015DB00BF0E46DDF8B01753F8202041F85D
:1030100026202668DDF8B01755F8202001EB860140
:10302000C1F890212168491C2160401EEAD5012089
:103030000DF28C7DBDE8F08F6445000813B54FF0AC
:10304000FF33012269460248FEF76AFC00981CBD66
:10305000180300200A4B10B50020411E03F54872EA
:1030600003EB800443F82010C4F8901142F82010BC
:1030700002EB8004401CC4F890116428F0DB10BD02
:10308000B848002007280CD200290ADB092908DAF1
:10309000054A00EBC00002EB800050F82100012837
:1030A00000D00020704700007C4700208CB00A252B
:1030B000DFF81CA428274FF001094FF0220B4FF036
:1030C0000308DAF800005446401ECAF80000012840
:1030D00001DC012200E000222021FE48FDF7D9FC9E
:1030E000012000F0B7FAFC4800780028E9D0A24699
:1030F0000026FA4C2EE0A15D3223B1FBF5F005FB72
:103100001010B1FBF5F1401CCDE90A0BC1F107022B
:10311000CDE908B2CDE90698CDE9048900201E2149
:103120000097CDE90110039006EB8600C200EB4842
:10313000EBA13730FFF7C0FBE84982B2CAF80400C0
:103140004FF0FF333731F348FEF7EAFB052000F07C
:1031500081FA761CA07AB042CDDC00262FE0A019BF
:103160009623C17AB1FBF5F005FB1010B1FBF5F128
:10317000401CCDE90A0BC1F10702CDE908B2CDE947
:103180000698CDE9048900201E210097CDE90110A1
:10319000039006EB8600C200D048D1A13730FFF77C
:1031A0008BFBCE4982B2CAF804004FF0FF333731AF
:1031B000D848FEF7B5FB052000F04CFA761C607D80
:1031C000B042CCDC00262FE0A019FA23817DB1FBB0
:1031D000F5F005FB1010B1FBF5F1401CCDE90A0B31
:1031E000C1F10702CDE908B2CDE90698CDE904891D
:1031F00000201E210097CDE90110039006EB860008
:10320000C200B648B6A13730FFF756FBB34982B2C9
:10321000CAF804004FF0FF333731BE48FEF780FB99
:10322000052000F017FA761C94F82000B042CBDCA1
:10323000002631E0A0194FF4AF7390F82110B1FBD4
:10324000F5F005FB1010B1FBF5F1401CCDE90A0BC0
:10325000C1F10702CDE908B2CDE90698CDE90489AC
:1032600000201E210097CDE90110039006EB860097
:10327000C2009A489AA13730FFF71EFB974982B2E5
:10328000CAF804004FF0FF333731A248FEF748FB7D
:10329000052000F0DFF9761C94F82B00B042C9DC61
:1032A000002631E0A0194FF4E17390F82C10B1FB27
:1032B000F5F005FB1010B1FBF5F1401CCDE90A0B50
:1032C000C1F10702CDE908B2CDE90698CDE904893C
:1032D00000201E210097CDE90110039006EB860027
:1032E000C2007E487EA13730FFF7E6FA7B4982B202
:1032F000CAF804004FF0FF3337318648FEF710FB61
:10330000052000F0A7F9761C94F83600B042C9DC1D
:10331000724964264C46897ACDF828B0CDE908B1C7
:1033200000210391CDE9048908461E210096CDE9CC
:1033300001106A48CDE906980023324676A137305D
:10334000FFF7BAFA654982B2CAF804004FF0FF33BA
:1033500037317048FEF7E4FA0A2000F07BF95F4944
:1033600000236422897ACDF828B0CDE908B1002184
:10337000CDE90484039108461E210096CDE9011091
:103380005648CDE9064864A13730FFF795FA53490E
:1033900082B2CAF804004FF0FF3337315D48FEF7C0
:1033A000BFFA0A2000F056F94C4900236422897ABA
:1033B000CDF828B0CDE908B10021CDE9048403910E
:1033C00008461E210096CDE901104448CDE9064883
:1033D00051A13730FFF770FA404982B2CAF80400B1
:1033E0004FF0FF3337314B48FEF79AFA0A2000F0CE
:1033F00031F93A4964231A46497DCDF828B0CDE920
:1034000008B10021CDE90484039108461E210096ED
:10341000CDE901103148CDE906483FA13730FFF72B
:103420004BFA2E4982B2CAF804004FF0FF3337310D
:103430003848FEF775FA0A2000F00CF92749C8232E
:10344000642291F82010CDF828B0CDE908B1002110
:10345000CDE90484039108461E210096CDE90110B0
:103460001E48CDE906482CA13730FFF725FA1B4945
:1034700082B2CAF804004FF0FF3337312548FEF717
:103480004FFA0A2000F0E6F814494FF496736422CC
:1034900091F82B10CDF828B0CDE908B10021CDE985
:1034A0000484039108461E210096CDE901100B48C3
:1034B000CDE9064818A13730FFF7FEF9074982B277
:1034C000CAF804004FF0FF33373112483CE00000E7
:1034D0008C000020000C0140940000207C4600205D
:1034E000787374722025642C25642C25642C256443
:1034F0002C25642C25642C25642C25642C25642C17
:1035000025642C25634125644225642563FFFFFF64
:103510000000000060030020787374722025642C82
:1035200025642C25642C25642C25642C25642C25ED
:10353000642C25642C25642C25642C2563256425A6
:1035400063FFFFFF00000000FEF7EAF90A2000F029
:1035500081F81649B30091F83610CDF828B0CDE9BE
:1035600008B10021CDE90484039108461E2100968C
:10357000CDE901106422AFF260010C48CDE90648A4
:103580003730FFF799F9094982B2CAF804004FF0C1
:10359000FF3337310648FEF7C3F90A2000F05AF826
:1035A00004480178491E01708BE500007C4600202C
:1035B000600300209400002086B0FDF77DFAFEF73E
:1035C000DFFEFEF7FBFAFEF7A1FAFEF75DFBFEF762
:1035D00077FB00F029FC1948816941F008018161FD
:1035E000816901F008010491816941F04001816124
:1035F0008069202400F0400004900120CDE90040C3
:10360000029003200E4D039069462846FDF740F9CD
:1036100000940C4C69462046FDF73AF9012220211E
:103620002846FDF736FA012220212046FDF731FA1F
:10363000FEF79AFA00F015F8FEE7000000100240CD
:10364000000C01400018014001460020842900D0F0
:10365000C81C704710B500B9012000F0DFFC002045
:1036600010BD10B500F000FD002010BD7FB50D4667
:1036700004464169B0F9080081B1A16971B1FFF751
:10368000E3FFD4E905128DE80700D4E900102B46CA
:10369000226900F034FE039004B070BDFFF7D4FF40
:1036A00003A9CDE90001208A2B4682B2D4E900109B
:1036B00000F0F8FD012801D00020EDE70398EBE7CA
:1036C00010B500F007FD002010BD00002DE9F0410D
:1036D0000C46002690B005464FF0FF38891E0AE0E0
:1036E00055F82100062805D105EB8100D0F890019E
:1036F000082804D0491E0029F2DC002715E088467E
:103700000126FAE755F82710092905D105EB8700AE
:10371000D0F89021022A0FD097B12EB1474503D19E
:1037200027A000BFFFF7B8F87F1CA742EADB0126FD
:1037300000213046641E1AE027A0FFF7ADF8F3E73A
:1037400027A0EFE705EB800255F8203052F8047C03
:10375000DB1B00D55B4202F5C67284CABA1A00D5DB
:1037600052421A44012A01D00026491C401CA042A2
:10377000E8DB56B11FA0FFF78FF840216846FCF741
:103780005AFD00206B46012615E020A0FFF784F8C3
:10379000F3E700BF05EB800155F82020D1F8901128
:1037A000072A07D2002905DB092903DA02EBC20246
:1037B0001A445654401CA042ECDB10B0BDE8F08126
:1037C000203C2D2D2052657475726E656420746FD7
:1037D000207374617274000025642C25640A000053
:1037E000203C2D2D20537461727420706F696E74AB
:1037F00000000000416C6C206D6F76657320617273
:10380000652061646A6163656E740A00466F756E57
:103810006420256420696C6C6567616C206D6F762F
:1038200065730A0070B50D460146FC221E48FCF780
:10383000E9FC1D483F21FC30FCF7FDFCFFF70AFCCA
:103840001A4C00206060E0602061FFF70FFA082149
:103850000620FFF729FA10B320691549642809DA10
:10386000092241F82020022201EB8003401CC3F80A
:1038700090212061002022690DE000BF51F8203026
:1038800045F8203001EB800305EB8006D3F890313A
:10389000401CC6F890319042F0DB206970BD05A055
:1038A000FEF7FAFF002070BD7C4700209400002046
:1038B000D84B00205061746820706C616E6E696E28
:1038C00067206661696C65643A2043616E6E6F744F
:1038D00020636F76657220616C6C20666C79616222
:1038E0006C652061726561730A0000007CB5164644
:1038F0000D46FFF797FF1E4C0028A06132DD002E19
:1039000030D005EB800104F1140251F8080CD1F815
:103910008811184ECDE9006208230622FFF7C0FA8D
:1039200008B3A0690121401E0EE000BF56F8212017
:1039300045F8202006EB810205EB8003D2F89021A8
:10394000401C491CC3F890216269914201DA632846
:10395000ECDB092145F82010022105EB8002401C18
:10396000C2F890117CBD04A0FEF796FFA0697CBD53
:1039700094000020F84E00205761726E696E673A1D
:103980002043616E6E6F742066696E642072657488
:1039900075726E2070617468210A00002DE9F04193
:1039A000184C0F460546E6682068001D00F06EFAC8
:1039B00038B9206890F82C10012088402169814393
:1039C0002161681C07D137B12168BDE8F0410E487C
:1039D000091D00F09FBA20683544B5424560216852
:1039E00005D2A06BBDE8F041091D00F07BBA606B09
:1039F000091D00F077FAA06A854200D2A562BDE8F1
:103A0000F08100001C000020DC0500202DE9F041C1
:103A1000054600F08BFA2E4CA068401CA060206880
:103A20002C4F10B1606940B32DE02560A0680128DB
:103A300029D1002606EB860007EB800000F044FA4F
:103A4000761C072EF6D323488C3000F03DFA21482F
:103A5000A03000F039FA1F48B43000F035FA1D48A4
:103A6000C83000F031FA1B48DC3000F02DFA19485C
:103A70008C3060631430A06305E02068E96AC06A96
:103A8000884200D82560606A401C6062E96A0120B3
:103A9000226988401043206101EB810007EB800020
:103AA000291D00F037FA00F061FA606900280CD097
:103AB0002068E96AC06A884207D207494FF08050FF
:103AC0000860BFF34F8FBFF36F8FBDE8F081000038
:103AD0001C0000200005002004ED00E010B50446A5
:103AE00090F8510058B101280CD002280FD0502076
:103AF00080F31188BFF34F8FBFF36F8FFEE7206B0A
:103B000000F048FA2046BDE8104000F043BA10BD6E
:103B100010484FF48041420706D0C01D0D4920F0E7
:103B20000700411AC1F580410B4A00230144C2E954
:103B300000030839183A21F0070111604B600B604F
:103B40000B1AC0E9001393604FF0004053605061BE
:103B500070470000F005002070000020144E154C46
:103B6000A6F1C8074FF08058DFF84C9012E000BF74
:103B700000F0DCF9F068C568281D00F087F9A0683E
:103B8000401EA0606068401E606000F0EFF92846AB
:103B9000FFF7A4FF60680028EAD138680128F9D946
:103BA000C9F80080BFF34F8FBFF36F8FF2E70000BB
:103BB000C80500201C00002004ED00E02DE9F047BE
:103BC0009A46DDE9098481466FF00303206B03EB1D
:103BD00082021044089E20F00707780707D0502083
:103BE00080F31188BFF34F8FBFF36F8FFEE700257F
:103BF00061B1002023180A5C83F834200A5C12B1FA
:103C0000401C1028F6D384F8435001E084F8345067
:103C1000072E00D30626E662C4E91165201D00F0D8
:103C20005EF904F1180000F05AF92461C6F10700AA
:103C30006462A061E56484F85050524649463846B3
:103C400000F0C0F82060B8F1000F01D0C8F80040C3
:103C5000BDE8F08730B5114900E011460A6882429C
:103C6000FBD34B685C18844203D140681844486019
:103C7000084643681C18944209D1084C183C246833
:103C8000A24209D052681A4442600A68126802606F
:103C9000814200D0086030BD0460F9E77000002068
:103CA0000648416B096829B1416BC968C968496810
:103CB000816270474FF0FF31FAE700001C000020DE
:103CC00008484068401C4FF0500080F3118804D031
:103CD000BFF34F8FBFF36F8FFEE7BFF34F8FBFF37D
:103CE0006F8FFEE7780000202DE9F04105460027A0
:103CF00000F04EFA324E306808B9FFF709FF7069DC
:103D000005424ED1C5B3083568070ED005F007004F
:103D1000C0F108000544680707D0502080F31188DF
:103D2000BFF34F8FBFF36F8FFEE72DB370688542EF
:103D300037D82348183001460C6801E020460C466D
:103D40006168A94202D221680029F7D131688C420A
:103D500027D007682168016060680837411B102977
:103D60000FD96019420708D0502080F31188BFF3A3
:103D70004F8FBFF36F8FFEE713E041606560FFF781
:103D800069FF61687068401A7060B268904200D242
:103D9000B060706901430020C4E90001F068401C74
:103DA000F06000F03DFB780707D0502080F31188C9
:103DB000BFF34F8FBFF36F8FFEE73846BDE8F0814A
:103DC0005800002010B5031F4FF080741C601B1FAB
:103DD00021F001011960191F024B0B6014394038A2
:103DE0000A6010BDC13C000830B50D480D4A41685D
:103DF0000161002002F548730DE000BF52F8204039
:103E000043F8204002EB800403EB8005D4F8904196
:103E1000401CC5F89041884201DA6428EEDB30BDD1
:103E200094000020B848002010B50A221249134817
:103E3000FDF766FDFDF728FF0A220F490F48FDF741
:103E4000BAFA0F480068016821F0040101600A49CC
:103E50000A220A310B48FDF753FDFDF731FF0649F1
:103E60000A220A310748FDF7A6FA074800680168E8
:103E700021F00401016010BD544600201803002009
:103E8000A80300206003002030040020D0E90132A4
:103E900001699A60D0E901235A604A68824201D1DF
:103EA00082684A60002202610868401E0860086853
:103EB00070470000034B036003F15400086080204A
:103EC00010607047C400002000F108014FF0FF327D
:103ED000C0E90112C1600161002101607047002149
:103EE0000161704730B50B685A1C02D000F108021E
:103EF00002E0026904E02246546825689D42FAD92E
:103F000053684B6099608A60516008610168491C80
:103F1000016030BD42684A6093688B609368596065
:103F2000916008610168491C01607047502080F36E
:103F30001188BFF34F8FBFF36F8F0A494868401C49
:103F4000486001280CD10848006810F0FF0F07D026
:103F5000502080F31188BFF34F8FBFF36F8FFEE7C0
:103F6000704700007800002004ED00E00849486830
:103F700028B1401E486001D180F31188704750205D
:103F800080F31188BFF34F8FBFF36F8FFEE7000000
:103F90007800002070B500282AD0164DA0F1080442
:103FA00060686969084207D1502080F31188BFF327
:103FB0004F8FBFF36F8FFEE722683AB1502080F336
:103FC0001188BFF34F8FBFF36F8FFEE788436060A8
:103FD00000F0DEF860686968084468602046FFF712
:103FE00039FE2869401C2861BDE8704000F018BA0D
:103FF00070BD0000580000204FF0E020002101615A
:10400000816105494FF47A720968B1FBF2F1491EEA
:1040100041610721016170471800002010B50200BE
:1040200014D00F48006B38B1502080F31188BFF3D3
:104030004F8FBFF36F8FFEE700F0AAF80021104604
:10404000FFF7ACFC00F0ECF9002807D105494FF070
:1040500080500860BFF34F8FBFF36F8F10BD00001B
:104060001C00002004ED00E010B586B0002403948D
:1040700005AA04A903A80494FFF71CFFDDE90301C6
:104080000094CDE9011000230EA11048059A00F01C
:1040900036F90F490028C86211D0502080F31188EA
:1040A000BFF34F8FBFF36F8F4FF0FF308862012057
:1040B0004861CC6006B0BDE8104000F09FB806B083
:1040C00010BD000049444C45000000005D3B000865
:1040D0001C00002070B50446FFF728FF294D04B9E5
:1040E0002C68201DFFF7D2FE58B9E06A264A00EB83
:1040F000800152F8211021B90121814028698843AB
:104100002861A06A18B104F11800FFF7BFFE1E482D
:10411000211DDC30FFF7FEFE94F850000026012838
:1041200001D184F85060FFF721FF686928B1FFF7DB
:10413000FDFEFFF7B5FDFFF719FF2868844213D194
:10414000686990B1286B38B1502080F31188BFF3B3
:104150004F8FBFF36F8FFEE70C494FF08050086020
:10416000BFF34F8FBFF36F8F70BD0748DC3000681F
:10417000A968884201D12E6070BDBDE8704000F092
:104180000FB800001C0000200005002004ED00E036
:104190000248016B491C0163704700001C000020AD
:1041A0001448016B11B10121C16170470021C16147
:1041B0000169B1FA81F1C1F11F0101EB81020E49E0
:1041C00051F822306BB101EB820101F108034A681A
:1041D00052684A609A4201D152684A60D1680160CF
:1041E0007047502080F31188BFF34F8FBFF36F8F5C
:1041F000FEE700001C000020000500201CB5264939
:1042000008780190FF20087008788DF800009DF86C
:1042100000009DF8002000F0F000904207D05020F0
:1042200080F31188BFF34F8FBFF36F8FFEE79DF8C8
:1042300000001A4C00F0500020700720A06005E03C
:104240009DF8002052008DF80020401E9DF80020AF
:104250001206F5D4A060032807D0502080F31188FF
:10426000BFF34F8FBFF36F8FFEE74FF44070A06036
:10427000019808700A48016841F470010160016802
:1042800041F070410160FFF7B7FE00206060FBF76E
:104290006DFF00201CBD000000E400E0780000205D
:1042A00020ED00E02DE9FF5F8346DDE90E879946AA
:1042B00016468A469000FFF717FD05001CD05420D3
:1042C000FFF712FD040014D00020256384F851008C
:1042D000CDE90240CDE900874B463246514658466B
:1042E000FFF76CFC2046FFF791FB012004B0BDE80E
:1042F000F09F2846FFF74EFE4FF0FF30F6E7F0B58F
:1043000085B0DDE90B640A9DA6B1DCB154270097A6
:104310002663022684F85160002604AFCDE90246E8
:10432000CDE90057FFF74AFC2046FFF76FFB0498E2
:1043300005B0F0BD502080F31188BFF34F8FBFF35D
:104340006F8FFEE7502080F31188BFF34F8FBFF3CC
:104350006F8FFEE72DE9F0412F4C0026206B28B12E
:10436000A069401CA0613046BDE8F081E5686D1C85
:10437000E56013D1606B006838B1502080F311887C
:10438000BFF34F8FBFF36F8FFEE7606BA16B61636D
:10439000A063206A401C2062FFF782FCA06ADFF85D
:1043A0007C80854209D3606B0068A0B1606BC068F7
:1043B000C7687868854211D2A0622068C06A00EBA5
:1043C000800158F82100012800D90126E069002861
:1043D000C9D00126C7E74FF0FF30EDE7381DFFF7E2
:1043E00055FDB86A18B107F11800FFF74FFDF96ADB
:1043F0000120226988401043206101EB810108EB14
:104400008100391DFFF786FDF86A2168C96A884274
:10441000C9D30126C7E700001C00002000050020CA
:104420002DE9F0472C4D00242746286B38B1FFF7C3
:104430007DFD286B401E2863286B40B146E050206C
:1044400080F31188BFF34F8FBFF36F8FFEE7A9682A
:10445000224E0120D1B3A6F1B40980463068E8B1FC
:10446000F068C46804F11800FFF710FD201DFFF785
:104470000DFDE06A2A6908FA00F11143296100EB99
:10448000800109EB8100211DFFF744FDE06A2968E6
:10449000C96A8842E2D3C5F81C80DFE70CB1FFF798
:1044A000FFFBAC6944B14646FFF754FF00B1EE6133
:1044B000641EF9D10020A861E86938B108490127D4
:1044C00038070860BFF34F8FBFF36F8FFFF74EFDC4
:1044D0003846BDE8F08700001C000020B40500202D
:1044E00004ED00E08C4600089D0200080100000079
:1044F000000000008000000000000000000000003C
:1045000084460008FD1C00080100000000000000B7
:10451000B80B00000000000000000000804600080A
:10452000AD30000800000000000000008000000026
:10453000000000000000000001020203040506075D
:1045400008090A0B0C0D0E0F1010000000000000EF
:104550000000010203040607080900000000010230
:1045600003040000FFFFFFFF000000000100000047
:10457000000000000000000001000000000000003A
:10458000FFFFFFFF0100000001000000010000002C
:104590000100000001000000010000000100000017
:1045A0000100000001000000010000000100000007
:1045B00001000000010000000100000001000000F7
:1045C00001000000010000000100000001000000E7
:1045D00001000000010000000100000001000000D7
:1045E00001000000010000000100000001000000C7
:1045F00001000000010000000100000001000000B7
:1046000001000000010000000100000001000000A6
:104610000100000001000000010000000100000096
:104620000100000001000000010000000100000086
:104630000100000001000000010000000100000076
:104640000100000001000000010000000100000066
:104650000100000001000000010000000100000056
:104660000100000001000000010000000100000046
:104670000100000001000000010000000100000036
:104680006C63640053656E6400000000416E6A69EB
:10469000616E0000B446000800000020C400000065
:1046A0000029000878470008C4000020B45C00001E
:1046B00010290008000000000000000000000000B9
:1046C00001000000100000000000000000127A004D
:1046D00000000000000000000000000000000000DA
:1046E00000000000000000000000000000000000CA
:1046F00000000000000000000000000000000000BA
:1047000000000000000000000000000000000000A9
:104710000000000000000000000000000000000099
:104720000000000000000000000000000000000089
:10473000AAAAAAAA00000000FF00000000000000D2
:104740000000000000000000000000000000000069
:104750000000000000000000000000000000000059
:104760000000000000000000000000000000000049
:08477000000000000000000041
:0400000508000131BD
:00000001FF
